{"abi":[{"type":"constructor","inputs":[{"name":"morphoAddress","type":"address","internalType":"address"},{"name":"swapRouter","type":"address","internalType":"address"},{"name":"treasury","type":"address","internalType":"address"}],"stateMutability":"nonpayable"},{"type":"function","name":"LIQUIDATION_BUFFER","inputs":[],"outputs":[{"name":"","type":"uint256","internalType":"uint256"}],"stateMutability":"view"},{"type":"function","name":"SLIPPAGE_BUFFER","inputs":[],"outputs":[{"name":"","type":"uint256","internalType":"uint256"}],"stateMutability":"view"},{"type":"function","name":"acceptOwnership","inputs":[],"outputs":[],"stateMutability":"nonpayable"},{"type":"function","name":"addSupportedCollateralToken","inputs":[{"name":"collateralToken","type":"address","internalType":"address"},{"name":"morphoMarketId","type":"bytes32","internalType":"bytes32"}],"outputs":[],"stateMutability":"nonpayable"},{"type":"function","name":"calcLeverageFlashLoan","inputs":[{"name":"desiredLtv","type":"uint256","internalType":"uint256"},{"name":"collateralToken","type":"address","internalType":"address"},{"name":"loanToken","type":"address","internalType":"address"},{"name":"amountCollateral","type":"uint256","internalType":"uint256"}],"outputs":[{"name":"","type":"uint256","internalType":"uint256"}],"stateMutability":"view"},{"type":"function","name":"calcUnleverageFlashLoan","inputs":[{"name":"collateralToken","type":"address","internalType":"address"},{"name":"loanToken","type":"address","internalType":"address"},{"name":"sharesToBurn","type":"uint256","internalType":"uint256"}],"outputs":[{"name":"","type":"uint256","internalType":"uint256"}],"stateMutability":"view"},{"type":"function","name":"createUserProxy","inputs":[{"name":"user","type":"address","internalType":"address"}],"outputs":[{"name":"proxy","type":"address","internalType":"address"}],"stateMutability":"nonpayable"},{"type":"function","name":"deleverage","inputs":[{"name":"positionId","type":"uint256","internalType":"uint256"},{"name":"swapData","type":"bytes","internalType":"bytes"}],"outputs":[],"stateMutability":"nonpayable"},{"type":"function","name":"getCollateralValueInLoanToken","inputs":[{"name":"collateralToken","type":"address","internalType":"address"},{"name":"loanToken","type":"address","internalType":"address"},{"name":"amountCollateral","type":"uint256","internalType":"uint256"}],"outputs":[{"name":"","type":"uint256","internalType":"uint256"}],"stateMutability":"view"},{"type":"function","name":"getLiqLtv","inputs":[{"name":"collateralToken","type":"address","internalType":"address"},{"name":"loanToken","type":"address","internalType":"address"}],"outputs":[{"name":"","type":"uint256","internalType":"uint256"}],"stateMutability":"view"},{"type":"function","name":"getMaxLtv","inputs":[{"name":"collateralToken","type":"address","internalType":"address"},{"name":"loanToken","type":"address","internalType":"address"}],"outputs":[{"name":"","type":"uint256","internalType":"uint256"}],"stateMutability":"view"},{"type":"function","name":"getSharesValueInLoanToken","inputs":[{"name":"collateralToken","type":"address","internalType":"address"},{"name":"loanToken","type":"address","internalType":"address"},{"name":"sharesBorrowed","type":"uint256","internalType":"uint256"}],"outputs":[{"name":"","type":"uint256","internalType":"uint256"}],"stateMutability":"view"},{"type":"function","name":"getTreasury","inputs":[],"outputs":[{"name":"","type":"address","internalType":"address"}],"stateMutability":"view"},{"type":"function","name":"getUserLeveragePosition","inputs":[{"name":"user","type":"address","internalType":"address"},{"name":"positionId","type":"uint256","internalType":"uint256"}],"outputs":[{"name":"","type":"tuple","internalType":"struct LeveragePosition","components":[{"name":"open","type":"bool","internalType":"bool"},{"name":"collateralToken","type":"address","internalType":"address"},{"name":"loanToken","type":"address","internalType":"address"},{"name":"amountCollateral","type":"uint256","internalType":"uint256"},{"name":"amountLeveragedCollateral","type":"uint256","internalType":"uint256"},{"name":"sharesBorrowed","type":"uint256","internalType":"uint256"},{"name":"userProxy","type":"address","internalType":"address"},{"name":"amountCollateralInLoanToken","type":"uint256","internalType":"uint256"}]}],"stateMutability":"view"},{"type":"function","name":"getUserLeveragePositions","inputs":[{"name":"user","type":"address","internalType":"address"}],"outputs":[{"name":"","type":"tuple[]","internalType":"struct LeveragePosition[]","components":[{"name":"open","type":"bool","internalType":"bool"},{"name":"collateralToken","type":"address","internalType":"address"},{"name":"loanToken","type":"address","internalType":"address"},{"name":"amountCollateral","type":"uint256","internalType":"uint256"},{"name":"amountLeveragedCollateral","type":"uint256","internalType":"uint256"},{"name":"sharesBorrowed","type":"uint256","internalType":"uint256"},{"name":"userProxy","type":"address","internalType":"address"},{"name":"amountCollateralInLoanToken","type":"uint256","internalType":"uint256"}]}],"stateMutability":"view"},{"type":"function","name":"getYieldFee","inputs":[],"outputs":[{"name":"","type":"uint256","internalType":"uint256"}],"stateMutability":"view"},{"type":"function","name":"i_morpho","inputs":[],"outputs":[{"name":"","type":"address","internalType":"contract IMorpho"}],"stateMutability":"view"},{"type":"function","name":"i_swapRouter","inputs":[],"outputs":[{"name":"","type":"address","internalType":"contract ISwapRouter"}],"stateMutability":"view"},{"type":"function","name":"i_userProxyImplementation","inputs":[],"outputs":[{"name":"","type":"address","internalType":"address"}],"stateMutability":"view"},{"type":"function","name":"isSupportedCollateralToken","inputs":[{"name":"collateralToken","type":"address","internalType":"address"},{"name":"loanToken","type":"address","internalType":"address"}],"outputs":[{"name":"","type":"bool","internalType":"bool"}],"stateMutability":"view"},{"type":"function","name":"leverage","inputs":[{"name":"onBehalfOf","type":"address","internalType":"address"},{"name":"params","type":"tuple","internalType":"struct LeverageParams","components":[{"name":"desiredLtv","type":"uint256","internalType":"uint256"},{"name":"collateralToken","type":"address","internalType":"address"},{"name":"loanToken","type":"address","internalType":"address"},{"name":"amountCollateral","type":"uint256","internalType":"uint256"},{"name":"swapData","type":"bytes","internalType":"bytes"}]}],"outputs":[],"stateMutability":"nonpayable"},{"type":"function","name":"onMorphoFlashLoan","inputs":[{"name":"amountLoan","type":"uint256","internalType":"uint256"},{"name":"data","type":"bytes","internalType":"bytes"}],"outputs":[],"stateMutability":"nonpayable"},{"type":"function","name":"owner","inputs":[],"outputs":[{"name":"","type":"address","internalType":"address"}],"stateMutability":"view"},{"type":"function","name":"pendingOwner","inputs":[],"outputs":[{"name":"","type":"address","internalType":"address"}],"stateMutability":"view"},{"type":"function","name":"recover","inputs":[{"name":"token","type":"address","internalType":"address"}],"outputs":[],"stateMutability":"nonpayable"},{"type":"function","name":"recoveryMode","inputs":[],"outputs":[{"name":"","type":"bool","internalType":"bool"}],"stateMutability":"view"},{"type":"function","name":"renounceOwnership","inputs":[],"outputs":[],"stateMutability":"nonpayable"},{"type":"function","name":"setRecoveryMode","inputs":[{"name":"_enabled","type":"bool","internalType":"bool"}],"outputs":[],"stateMutability":"nonpayable"},{"type":"function","name":"transferOwnership","inputs":[{"name":"newOwner","type":"address","internalType":"address"}],"outputs":[],"stateMutability":"nonpayable"},{"type":"function","name":"updateTreasury","inputs":[{"name":"newTreasury","type":"address","internalType":"address"}],"outputs":[],"stateMutability":"nonpayable"},{"type":"function","name":"updateYieldFee","inputs":[{"name":"newYieldFee","type":"uint256","internalType":"uint256"}],"outputs":[],"stateMutability":"nonpayable"},{"type":"event","name":"LeveragePositionClosed","inputs":[{"name":"user","type":"address","indexed":true,"internalType":"address"},{"name":"positionId","type":"uint256","indexed":true,"internalType":"uint256"},{"name":"amountReturnedInLoanToken","type":"uint256","indexed":true,"internalType":"uint256"}],"anonymous":false},{"type":"event","name":"LeveragePositionOpened","inputs":[{"name":"user","type":"address","indexed":true,"internalType":"address"},{"name":"positionId","type":"uint256","indexed":true,"internalType":"uint256"},{"name":"amountDepositedInLoanToken","type":"uint256","indexed":true,"internalType":"uint256"}],"anonymous":false},{"type":"event","name":"OwnershipTransferStarted","inputs":[{"name":"previousOwner","type":"address","indexed":true,"internalType":"address"},{"name":"newOwner","type":"address","indexed":true,"internalType":"address"}],"anonymous":false},{"type":"event","name":"OwnershipTransferred","inputs":[{"name":"previousOwner","type":"address","indexed":true,"internalType":"address"},{"name":"newOwner","type":"address","indexed":true,"internalType":"address"}],"anonymous":false},{"type":"error","name":"FailedDeployment","inputs":[]},{"type":"error","name":"FlashLeverage__AmountCannotBeZero","inputs":[]},{"type":"error","name":"FlashLeverage__CannotBeZeroAddress","inputs":[]},{"type":"error","name":"FlashLeverage__EffectiveLtvTooHigh","inputs":[{"name":"desiredLtv","type":"uint256","internalType":"uint256"},{"name":"effectiveLtv","type":"uint256","internalType":"uint256"}]},{"type":"error","name":"FlashLeverage__ExceedsMaxLTV","inputs":[]},{"type":"error","name":"FlashLeverage__InvalidCollateralToken","inputs":[]},{"type":"error","name":"FlashLeverage__InvalidCollateralTokenDecimals","inputs":[]},{"type":"error","name":"FlashLeverage__InvalidYieldFee","inputs":[]},{"type":"error","name":"FlashLeverage__UnsupportedCollateralToken","inputs":[]},{"type":"error","name":"FlashLeverage__UntrustedLender","inputs":[]},{"type":"error","name":"InsufficientBalance","inputs":[{"name":"balance","type":"uint256","internalType":"uint256"},{"name":"needed","type":"uint256","internalType":"uint256"}]},{"type":"error","name":"OwnableInvalidOwner","inputs":[{"name":"owner","type":"address","internalType":"address"}]},{"type":"error","name":"OwnableUnauthorizedAccount","inputs":[{"name":"account","type":"address","internalType":"address"}]},{"type":"error","name":"ReentrancyGuardReentrantCall","inputs":[]},{"type":"error","name":"SafeERC20FailedOperation","inputs":[{"name":"token","type":"address","internalType":"address"}]}],"bytecode":{"object":"0x60e03461021257601f61464238819003918201601f19168301916001600160401b038311848410176101d3578084926060946040528339810103126102125761004781610216565b90610060604061005960208401610216565b9201610216565b6001600160a01b0392831660808190529190921660a081905260017f9b779b17422d0df92223018b32b4d1fa46e071723d6817e2486d003becc55f00559033156101ff57600380546001600160a01b0319908116909155600280549182163390811790915560405193916001600160a01b03167f8be0079c531659141344cd1fd0a4f28419497f9722a3daafe3b4186f6b6457e05f80a381159081156101f6575b506101e75761071d8281016001600160401b038111848210176101d3576040928492613f25843930825260208201520301905ff080156101c8576001600160a01b0390811660c052600580546001600160a01b0319169290911691909117905567016345785d8a0000600655604051613cfa908161022b82396080518181816105cc0152818161073d0152818161088201528181611133015281816117590152613150015260a05181818161144901526139b7015260c0518181816104300152612f2b0152f35b6040513d5f823e3d90fd5b634e487b7160e01b5f52604160045260245ffd5b637938257360e11b5f5260045ffd5b9050155f610101565b631e4fbdf760e01b5f525f60045260245ffd5b5f80fd5b51906001600160a01b03821682036102125756fe6080806040526004361015610012575f80fd5b5f905f3560e01c90816307a00b1f146128b2575080630cd865ec146127c257806324b3114514612783578063313b120e1461276a57806331f57072146116d15780633819e5d3146116955780633b19e84a146116435780633ba7a31414611629578063544e5eca1461146d57806358fb8054146113fe5780635adb101c1461139257806362fd6add1461134d578063642afd921461126d578063715018a61461123b5780637238823c14610ee557806379ba509714610ddb5780637f51bb1f14610d5357806383da2a3c14610d135780638da5cb5b14610cc1578063909fa78d146107da57806392905bf71461076157806396d066f5146106f2578063a1f1961014610669578063b2d0cde9146104b4578063bc3d92e214610454578063d5c96c17146103e5578063dc10160514610336578063e30c3978146102e4578063e30e40cb146102ca578063e43478ef146102355763f2fde38b14610173575f80fd5b346102325760207ffffffffffffffffffffffffffffffffffffffffffffffffffffffffffffffffc3601126102325773ffffffffffffffffffffffffffffffffffffffff6101bf6128ef565b6101c76135cd565b16807fffffffffffffffffffffffff0000000000000000000000000000000000000000600354161760035573ffffffffffffffffffffffffffffffffffffffff600254167f38d16b8cac22d99fc7c124b9cd0de2d3fa1faef420bfe791d8c362d765e227008380a380f35b80fd5b50346102325760407ffffffffffffffffffffffffffffffffffffffffffffffffffffffffffffffffc3601126102325760206102c26102726128ef565b61027a612912565b9073ffffffffffffffffffffffffffffffffffffffff165f525f60205273ffffffffffffffffffffffffffffffffffffffff60405f2091165f52602052600460405f20015490565b604051908152f35b50346102325760206102c26102de36612956565b9161302f565b503461023257807ffffffffffffffffffffffffffffffffffffffffffffffffffffffffffffffffc36011261023257602073ffffffffffffffffffffffffffffffffffffffff60035416604051908152f35b50346102325760407ffffffffffffffffffffffffffffffffffffffffffffffffffffffffffffffffc3601126102325760206103db6103736128ef565b61037b612912565b9073ffffffffffffffffffffffffffffffffffffffff165f525f60205273ffffffffffffffffffffffffffffffffffffffff60405f2091165f5260205273ffffffffffffffffffffffffffffffffffffffff600160405f20015416151590565b6040519015158152f35b503461023257807ffffffffffffffffffffffffffffffffffffffffffffffffffffffffffffffffc36011261023257602060405173ffffffffffffffffffffffffffffffffffffffff7f0000000000000000000000000000000000000000000000000000000000000000168152f35b50346102325760207ffffffffffffffffffffffffffffffffffffffffffffffffffffffffffffffffc3601126102325760206104966104916128ef565b612f18565b73ffffffffffffffffffffffffffffffffffffffff60405191168152f35b50346102325760407ffffffffffffffffffffffffffffffffffffffffffffffffffffffffffffffffc360112610232578060043560243567ffffffffffffffff811161066557610508903690600401612a7c565b6105128233612ddc565b906105b461055c73ffffffffffffffffffffffffffffffffffffffff602085015116604085019460a073ffffffffffffffffffffffffffffffffffffffff87511691015191612ac2565b9361058860405193849260016020850152336040850152606084015260808084015260a0830190612e69565b037fffffffffffffffffffffffffffffffffffffffffffffffffffffffffffffffe08101835282612a01565b73ffffffffffffffffffffffffffffffffffffffff807f00000000000000000000000000000000000000000000000000000000000000001692511691803b156106615761063493858094604051968795869485937fe0232b4200000000000000000000000000000000000000000000000000000000855260048501612eac565b03925af18015610656576106455750f35b8161064f91612a01565b6102325780f35b6040513d84823e3d90fd5b8480fd5b5050fd5b50346102325760207ffffffffffffffffffffffffffffffffffffffffffffffffffffffffffffffffc360112610232576004356106a46135cd565b801515806106e0575b156106b85760065580f35b6004827f2f2daf28000000000000000000000000000000000000000000000000000000008152fd5b5067016345785d8a00008111156106ad565b503461023257807ffffffffffffffffffffffffffffffffffffffffffffffffffffffffffffffffc36011261023257602060405173ffffffffffffffffffffffffffffffffffffffff7f0000000000000000000000000000000000000000000000000000000000000000168152f35b50346102325760207ffffffffffffffffffffffffffffffffffffffffffffffffffffffffffffffffc360112610232576004358015158091036107d6576107a66135cd565b60ff7fffffffffffffffffffffffffffffffffffffffffffffffffffffffffffffff006007541691161760075580f35b5080fd5b50346102325760407ffffffffffffffffffffffffffffffffffffffffffffffffffffffffffffffffc3601126102325773ffffffffffffffffffffffffffffffffffffffff6108276128ef565b61082f6135cd565b168015610c9957604051907f2c3c9157000000000000000000000000000000000000000000000000000000008252602435600483015260a08260248173ffffffffffffffffffffffffffffffffffffffff7f0000000000000000000000000000000000000000000000000000000000000000165afa918215610b89578392610c0e575b50602082019073ffffffffffffffffffffffffffffffffffffffff8251168103610be6576020600491604051928380927f313ce5670000000000000000000000000000000000000000000000000000000082525afa908115610bdb5760129160ff918691610bbc575b501603610b94579060208273ffffffffffffffffffffffffffffffffffffffff600494511685528482526040852073ffffffffffffffffffffffffffffffffffffffff80855116165f52825260405f2073ffffffffffffffffffffffffffffffffffffffff80855116928184167fffffffffffffffffffffffff0000000000000000000000000000000000000000845416178355511673ffffffffffffffffffffffffffffffffffffffff6001830191167fffffffffffffffffffffffff000000000000000000000000000000000000000082541617905573ffffffffffffffffffffffffffffffffffffffff60408501511673ffffffffffffffffffffffffffffffffffffffff6002830191167fffffffffffffffffffffffff000000000000000000000000000000000000000082541617905573ffffffffffffffffffffffffffffffffffffffff60608501511673ffffffffffffffffffffffffffffffffffffffff6003830191167fffffffffffffffffffffffff0000000000000000000000000000000000000000825416179055846080850151910155604051938480927f313ce5670000000000000000000000000000000000000000000000000000000082525afa918215610b89578392610b42575b5073ffffffffffffffffffffffffffffffffffffffff9051168252600160205260ff6040832091167fffffffffffffffffffffffffffffffffffffffffffffffffffffffffffffff0082541617905580f35b73ffffffffffffffffffffffffffffffffffffffff919250610b7b9060203d602011610b82575b610b738183612a01565b810190612eff565b9190610af0565b503d610b69565b6040513d85823e3d90fd5b6004837f166fbc9c000000000000000000000000000000000000000000000000000000008152fd5b610bd5915060203d602011610b8257610b738183612a01565b5f61091b565b6040513d86823e3d90fd5b6004847f033da2b4000000000000000000000000000000000000000000000000000000008152fd5b90915060a0813d60a011610c91575b81610c2a60a09383612a01565b81010312610c8d57608060405191610c41836129c8565b610c4a81612ede565b8352610c5860208201612ede565b6020840152610c6960408201612ede565b6040840152610c7a60608201612ede565b606084015201516080820152905f6108b2565b8280fd5b3d9150610c1d565b6004827ff2704ae6000000000000000000000000000000000000000000000000000000008152fd5b503461023257807ffffffffffffffffffffffffffffffffffffffffffffffffffffffffffffffffc36011261023257602073ffffffffffffffffffffffffffffffffffffffff60025416604051908152f35b503461023257807ffffffffffffffffffffffffffffffffffffffffffffffffffffffffffffffffc3601126102325760206040516658d15e176280008152f35b50346102325760207ffffffffffffffffffffffffffffffffffffffffffffffffffffffffffffffffc3601126102325773ffffffffffffffffffffffffffffffffffffffff610da06128ef565b610da86135cd565b168015610c99577fffffffffffffffffffffffff0000000000000000000000000000000000000000600554161760055580f35b503461023257807ffffffffffffffffffffffffffffffffffffffffffffffffffffffffffffffffc360112610232576003543373ffffffffffffffffffffffffffffffffffffffff821603610eb9577fffffffffffffffffffffffff000000000000000000000000000000000000000016600355600254337fffffffffffffffffffffffff000000000000000000000000000000000000000082161760025573ffffffffffffffffffffffffffffffffffffffff3391167f8be0079c531659141344cd1fd0a4f28419497f9722a3daafe3b4186f6b6457e08380a380f35b6024827f118cdaa700000000000000000000000000000000000000000000000000000000815233600452fd5b50346102325760407ffffffffffffffffffffffffffffffffffffffffffffffffffffffffffffffffc36011261023257610f1d6128ef565b9060243567ffffffffffffffff81116107d6578036039260a07ffffffffffffffffffffffffffffffffffffffffffffffffffffffffffffffffc850112610c8d5773ffffffffffffffffffffffffffffffffffffffff169283156112135760248201936004830135610f8e86612e48565b610fa56044860191610f9f83612e48565b90612d1d565b82116111eb57610fc0610fb788612e48565b61037b83612e48565b156111c357606485013591821561119b57610fe4610fde8899612e48565b92612e48565b94610ff0843385613815565b610ffc84878585612ccc565b967fffffffffffffffffffffffffffffffffffffffffffffffffffffffffffffffdd6084820135920182121561119757019260048401359367ffffffffffffffff851161119757602401918436038313611197578461111c958a947fffffffffffffffffffffffffffffffffffffffffffffffffffffffffffffffe09473ffffffffffffffffffffffffffffffffffffffff61012098601f966040519c8a8e9b5060208c015260408b015260608a015216608088015273ffffffffffffffffffffffffffffffffffffffff8b1660a088015260c087015260e0808701528161010087015286860137898582860101520116810103017fffffffffffffffffffffffffffffffffffffffffffffffffffffffffffffffe08101835282612a01565b73ffffffffffffffffffffffffffffffffffffffff7f000000000000000000000000000000000000000000000000000000000000000016803b156106615761063493858094604051968795869485937fe0232b4200000000000000000000000000000000000000000000000000000000855260048501612eac565b8880fd5b6004877fb02cb97d000000000000000000000000000000000000000000000000000000008152fd5b6004867f0f971137000000000000000000000000000000000000000000000000000000008152fd5b6004867fdcbc554e000000000000000000000000000000000000000000000000000000008152fd5b6004837ff2704ae6000000000000000000000000000000000000000000000000000000008152fd5b503461023257807ffffffffffffffffffffffffffffffffffffffffffffffffffffffffffffffffc3601126102325780f35b50346102325760407ffffffffffffffffffffffffffffffffffffffffffffffffffffffffffffffffc360112610232576101006112b46112ab6128ef565b60243590612ddc565b61134b604051809260e0809180511515845273ffffffffffffffffffffffffffffffffffffffff602082015116602085015273ffffffffffffffffffffffffffffffffffffffff6040820151166040850152606081015160608501526080810151608085015260a081015160a085015273ffffffffffffffffffffffffffffffffffffffff60c08201511660c08501520151910152565bf35b50346102325760407ffffffffffffffffffffffffffffffffffffffffffffffffffffffffffffffffc3601126102325760206102c261138a6128ef565b610f9f612912565b50346102325760807ffffffffffffffffffffffffffffffffffffffffffffffffffffffffffffffffc360112610232576113ca612912565b906044359073ffffffffffffffffffffffffffffffffffffffff821682036102325760206102c26064358486600435612ccc565b503461023257807ffffffffffffffffffffffffffffffffffffffffffffffffffffffffffffffffc36011261023257602060405173ffffffffffffffffffffffffffffffffffffffff7f0000000000000000000000000000000000000000000000000000000000000000168152f35b50346102325760207ffffffffffffffffffffffffffffffffffffffffffffffffffffffffffffffffc3601126102325773ffffffffffffffffffffffffffffffffffffffff6114ba6128ef565b168152600460205260408120805467ffffffffffffffff81116115fc57604051906114eb60208260051b0183612a01565b80825260208201809385526020852085915b8383106115de57868587604051928392602084019060208552518091526040840192915b81811061152f575050500390f35b919350916020610100826115d0600194885160e0809180511515845273ffffffffffffffffffffffffffffffffffffffff602082015116602085015273ffffffffffffffffffffffffffffffffffffffff6040820151166040850152606081015160608501526080810151608085015260a081015160a085015273ffffffffffffffffffffffffffffffffffffffff60c08201511660c08501520151910152565b019401910191849392611521565b600760206001926115ee85612c1f565b8152019201920191906114fd565b6024837f4e487b710000000000000000000000000000000000000000000000000000000081526041600452fd5b50346102325760206102c261163d36612956565b91612aff565b503461023257807ffffffffffffffffffffffffffffffffffffffffffffffffffffffffffffffffc36011261023257602073ffffffffffffffffffffffffffffffffffffffff60055416604051908152f35b503461023257807ffffffffffffffffffffffffffffffffffffffffffffffffffffffffffffffffc360112610232576020600654604051908152f35b5034611f355760407ffffffffffffffffffffffffffffffffffffffffffffffffffffffffffffffffc360112611f355760043560243567ffffffffffffffff8111611f355736602382011215611f3557806004013567ffffffffffffffff8111611f3557810160248101368111611f355773ffffffffffffffffffffffffffffffffffffffff7f000000000000000000000000000000000000000000000000000000000000000016918233036127425783900360208112611f35576024840135906002821015611f35575f916120315760e0906117ac613907565b12611f3557611f35576117c160448401612935565b6064840135946117d360848601612935565b936117e060a48701612935565b9360c48701359660e481013567ffffffffffffffff8111611f355773ffffffffffffffffffffffffffffffffffffffff8061182761183b9560248395611835970101612a7c565b971698169616948486613994565b876137dd565b9661186861184a898688612aff565b855f52600160205261186360ff60405f205416866137a2565b6137ea565b90662386f26fc100008101808211612004578211611fd657505061188b85612f18565b91845f525f60205260405f2073ffffffffffffffffffffffffffffffffffffffff85165f5260205260405f205f80604051926118c6846129c8565b73ffffffffffffffffffffffffffffffffffffffff8154168452600473ffffffffffffffffffffffffffffffffffffffff6001830154169182602087015273ffffffffffffffffffffffffffffffffffffffff600282015416604087015273ffffffffffffffffffffffffffffffffffffffff6003820154166060870152015460808501528b8260405160208101927f095ea7b3000000000000000000000000000000000000000000000000000000008452896024830152604482015260448152611992606482612a01565b51925af13d15611fcf573d6119a681612a42565b906119b46040519283612a01565b81523d5f602083013e5b81611f97575b5015611f3957823b15611f355773ffffffffffffffffffffffffffffffffffffffff604051947f238d6579000000000000000000000000000000000000000000000000000000008652611a9a60048701846080809173ffffffffffffffffffffffffffffffffffffffff815116845273ffffffffffffffffffffffffffffffffffffffff602082015116602085015273ffffffffffffffffffffffffffffffffffffffff604082015116604085015273ffffffffffffffffffffffffffffffffffffffff60608201511660608501520151910152565b8a60a487015216938460c482015261010060e48201525f6101048201525f816101248183885af18015611f2a57611f10575b509089611bf092611b8a604051917f50d8cd4b00000000000000000000000000000000000000000000000000000000602084015260248301906080809173ffffffffffffffffffffffffffffffffffffffff815116845273ffffffffffffffffffffffffffffffffffffffff602082015116602085015273ffffffffffffffffffffffffffffffffffffffff604082015116604085015273ffffffffffffffffffffffffffffffffffffffff60608201511660608501520151910152565b8260c48201528160e482015285610104820152306101248201526101248152611bb561014482612a01565b604051809481927f09c5eabe000000000000000000000000000000000000000000000000000000008352602060048401526024830190612e69565b038183885af1918215611ee357611c2592611c1c918c91611eee575b506020808251830101910161397e565b93905085613a48565b611c30868486612aff565b604051907f313ce567000000000000000000000000000000000000000000000000000000008252602082600481885afa908115611ee357611c78928b92611ec2575b5061375d565b968589526004602052604089205496868a52600460205260408a209460405196611ca1886129e4565b600188526020880190815260408801918252606088019283526080880193845260a0880194855260c0880195865260e08801968b885280549068010000000000000000821015611e955790611cfb91600182018155612d96565b989098611e695760069796949273ffffffffffffffffffffffffffffffffffffffff969492879251151560ff7fffffffffffffffffffffffffffffffffffffffffffffffffffffffffffffff008d54169116178b55517fffffffffffffffffffffff0000000000000000000000000000000000000000ff74ffffffffffffffffffffffffffffffffffffffff008c549260081b169116178a5551168560018a0191167fffffffffffffffffffffffff0000000000000000000000000000000000000000825416179055516002880155516003870155516004860155511673ffffffffffffffffffffffffffffffffffffffff6005850191167fffffffffffffffffffffffff0000000000000000000000000000000000000000825416179055519101557fa4f732b8c6eeb0f534d2e40c2bfb293de7684855cdae052e554ff9d53f37a8258480a460017f9b779b17422d0df92223018b32b4d1fa46e071723d6817e2486d003becc55f005580f35b60248d7f4e487b7100000000000000000000000000000000000000000000000000000000815280600452fd5b60248e7f4e487b710000000000000000000000000000000000000000000000000000000081526041600452fd5b611edc91925060203d602011610b8257610b738183612a01565b905f611c72565b6040513d8c823e3d90fd5b611f0a91503d808e833e611f028183612a01565b810190613c61565b5f611c0c565b611bf092919a505f611f2191612a01565b5f999091611acc565b6040513d5f823e3d90fd5b5f80fd5b60646040517f08c379a000000000000000000000000000000000000000000000000000000000815260206004820152600c60248201527f5361666520417070726f766500000000000000000000000000000000000000006044820152fd5b8051801592508215611fac575b50505f6119c4565b8192509060209181010312611f3557602001518015158103611f35575f80611fa4565b60606119be565b7f1409d0a3000000000000000000000000000000000000000000000000000000005f5260045260245260445ffd5b7f4e487b71000000000000000000000000000000000000000000000000000000005f52601160045260245ffd5b60809150612043959395949294613907565b12611f355761205460448201612935565b9060648101359360848201359067ffffffffffffffff8211611f355760246120939273ffffffffffffffffffffffffffffffffffffffff940101612a7c565b9116916120a08484612ddc565b9073ffffffffffffffffffffffffffffffffffffffff60c083015116926020830173ffffffffffffffffffffffffffffffffffffffff8151169060408501958973ffffffffffffffffffffffffffffffffffffffff885116608088019485519160a08a0151915f525f60205273ffffffffffffffffffffffffffffffffffffffff60405f2091165f526020526121cc8860405f209460405195612142876129c8565b600473ffffffffffffffffffffffffffffffffffffffff8254169182895273ffffffffffffffffffffffffffffffffffffffff60018201541660208a015273ffffffffffffffffffffffffffffffffffffffff60028201541660408a015273ffffffffffffffffffffffffffffffffffffffff60038201541660608a015201546080880152613a48565b8c6060604051602081019061226182886080809173ffffffffffffffffffffffffffffffffffffffff815116845273ffffffffffffffffffffffffffffffffffffffff602082015116602085015273ffffffffffffffffffffffffffffffffffffffff604082015116604085015273ffffffffffffffffffffffffffffffffffffffff60608201511660608501520151910152565b60a0815261227060c082612a01565b5190206044604051809481937f93c5206200000000000000000000000000000000000000000000000000000000835260048301528960248301525afa8015611f2a578e915f9161267f575b50906101445f936fffffffffffffffffffffffffffffffff602060409501511690808210861461267857505b83517f20b76e81000000000000000000000000000000000000000000000000000000008152875173ffffffffffffffffffffffffffffffffffffffff908116600483015260208901518116602483015260408901518116604483015260608901511660648201526080880151608482015294859384928260a485015260c48401528960e4840152610120610104840152816101248401525af18015611f2a57612649575b50806124be575b50505093836123d488956123ca61241a9673ffffffffffffffffffffffffffffffffffffffff9d968e6124249c9b5116905190613994565b948c895116613a48565b5f928181116124b3575b5050805f60e09252015190888551165f52600160205260ff60405f2054166124088160065461375d565b5f9380841161246f575b505050612cbf565b958692511661361a565b7fcd2b4e62cfe22ecc5a38c25a2dce9e2dd3a29a3e10fa499505b5bfb6aec9b1235f80a460017f9b779b17422d0df92223018b32b4d1fa46e071723d6817e2486d003becc55f005580f35b8394506124919161248661248b9261249796612cbf565b613713565b91613702565b90613726565b906124ab828a8751168b600554169061361a565b5f8080612412565b03915060e05f6123de565b5f9897939b9495969289926125e492612584604051927f8720316d00000000000000000000000000000000000000000000000000000000602085015260248401906080809173ffffffffffffffffffffffffffffffffffffffff815116845273ffffffffffffffffffffffffffffffffffffffff602082015116602085015273ffffffffffffffffffffffffffffffffffffffff604082015116604085015273ffffffffffffffffffffffffffffffffffffffff60608201511660608501520151910152565b60c48201528160e48201523061010482015261010481526125a761012482612a01565b6040519a8b809481937f09c5eabe000000000000000000000000000000000000000000000000000000008352602060048401526024830190612e69565b03925af18015611f2a57816123ca8a9761241a9773ffffffffffffffffffffffffffffffffffffffff9e8f906124249d6123d49761262f575b50979b9c5050969d5096505095612392565b612642903d805f833e611f028183612a01565b505f61261d565b61266a9060403d604011612671575b6126628183612a01565b81019061397e565b905061238b565b503d612658565b90506122e7565b9150506060813d60601161273a575b8161269b60609383612a01565b81010312611f355760405190606082019180831067ffffffffffffffff84111761270d578f91936fffffffffffffffffffffffffffffffff6020610144936126fd60405f9981998252805184526126f38582016138b8565b85850152016138b8565b87820152949550505093506122bb565b7f4e487b71000000000000000000000000000000000000000000000000000000005f52604160045260245ffd5b3d915061268e565b7f3baf0ef2000000000000000000000000000000000000000000000000000000005f5260045ffd5b34611f355760206102c261277d36612956565b91612ac2565b34611f35575f7ffffffffffffffffffffffffffffffffffffffffffffffffffffffffffffffffc360112611f35576020604051662386f26fc100008152f35b34611f355760207ffffffffffffffffffffffffffffffffffffffffffffffffffffffffffffffffc360112611f35576127f96128ef565b6128016135cd565b73ffffffffffffffffffffffffffffffffffffffff8116908161282f5761282d915047905b339061361a565b005b6020602492604051938480927f70a082310000000000000000000000000000000000000000000000000000000082523060048301525afa8015611f2a575f9061287e575b61282d925090612826565b506020823d6020116128aa575b8161289860209383612a01565b81010312611f355761282d9151612873565b3d915061288b565b34611f35575f7ffffffffffffffffffffffffffffffffffffffffffffffffffffffffffffffffc360112611f355760209060ff6007541615158152f35b6004359073ffffffffffffffffffffffffffffffffffffffff82168203611f3557565b6024359073ffffffffffffffffffffffffffffffffffffffff82168203611f3557565b359073ffffffffffffffffffffffffffffffffffffffff82168203611f3557565b7ffffffffffffffffffffffffffffffffffffffffffffffffffffffffffffffffc6060910112611f355760043573ffffffffffffffffffffffffffffffffffffffff81168103611f35579060243573ffffffffffffffffffffffffffffffffffffffff81168103611f35579060443590565b60a0810190811067ffffffffffffffff82111761270d57604052565b610100810190811067ffffffffffffffff82111761270d57604052565b90601f7fffffffffffffffffffffffffffffffffffffffffffffffffffffffffffffffe0910116810190811067ffffffffffffffff82111761270d57604052565b67ffffffffffffffff811161270d57601f017fffffffffffffffffffffffffffffffffffffffffffffffffffffffffffffffe01660200190565b81601f82011215611f3557803590612a9382612a42565b92612aa16040519485612a01565b82845260208383010111611f3557815f926020809301838601378301015290565b612ae5612afc938373ffffffffffffffffffffffffffffffffffffffff9361302f565b91165f52600160205260ff60405f2054169061375d565b90565b9173ffffffffffffffffffffffffffffffffffffffff60049293165f525f60205260405f2073ffffffffffffffffffffffffffffffffffffffff84165f52602052602073ffffffffffffffffffffffffffffffffffffffff600260405f20015416604051938480927fa035b1fe0000000000000000000000000000000000000000000000000000000082525afa918215611f2a575f92612be9575b50612bc373ffffffffffffffffffffffffffffffffffffffff92670de0b6b3a764000092613713565b0491165f52600160205260ff60405f20541660120160ff811161200457612afc916137a2565b91506020823d602011612c17575b81612c0460209383612a01565b81010312611f3557905190612bc3612b9a565b3d9150612bf7565b90604051612c2c816129e4565b60e06006829473ffffffffffffffffffffffffffffffffffffffff815460ff81161515865260081c16602085015273ffffffffffffffffffffffffffffffffffffffff60018201541660408501526002810154606085015260038101546080850152600481015460a085015273ffffffffffffffffffffffffffffffffffffffff60058201541660c08501520154910152565b9190820391821161200457565b9282612cd792612aff565b91670de0b6b3a76400000391670de0b6b3a7640000831161200457612ae581612d18612afc9573ffffffffffffffffffffffffffffffffffffffff946137ea565b612cbf565b90612d699173ffffffffffffffffffffffffffffffffffffffff165f525f60205273ffffffffffffffffffffffffffffffffffffffff60405f2091165f52602052600460405f20015490565b7fffffffffffffffffffffffffffffffffffffffffffffffffffa72ea1e89d800081019081116120045790565b8054821015612daf575f52600760205f20910201905f90565b7f4e487b71000000000000000000000000000000000000000000000000000000005f52603260045260245ffd5b612afc9173ffffffffffffffffffffffffffffffffffffffff612e42925f60e0604051612e08816129e4565b8281528260208201528260408201528260608201528260808201528260a08201528260c08201520152165f52600460205260405f20612d96565b50612c1f565b3573ffffffffffffffffffffffffffffffffffffffff81168103611f355790565b907fffffffffffffffffffffffffffffffffffffffffffffffffffffffffffffffe0601f602080948051918291828752018686015e5f8582860101520116010190565b612afc939273ffffffffffffffffffffffffffffffffffffffff60609316825260208201528160408201520190612e69565b519073ffffffffffffffffffffffffffffffffffffffff82168203611f3557565b90816020910312611f35575160ff81168103611f355790565b906e5af43d82803e903d91602b57fd5bf37f0000000000000000000000000000000000000000000000000000000000000000763d602d80600a3d3981f3363d3d373d3d3d363d7300000062ffffff8260881c16175f5260781b17602052603760095ff073ffffffffffffffffffffffffffffffffffffffff81169081156130075792813b15611f355773ffffffffffffffffffffffffffffffffffffffff60245f928360405195869485937fc4d66de80000000000000000000000000000000000000000000000000000000085521660048401525af18015611f2a57612ffb5750565b5f61300591612a01565b565b7fb06ebf3d000000000000000000000000000000000000000000000000000000005f5260045ffd5b73ffffffffffffffffffffffffffffffffffffffff165f525f60205260405f2073ffffffffffffffffffffffffffffffffffffffff82165f5260205260405f206040519061307c826129c8565b73ffffffffffffffffffffffffffffffffffffffff815416825273ffffffffffffffffffffffffffffffffffffffff600182015416602083015273ffffffffffffffffffffffffffffffffffffffff6002820154166040830152600473ffffffffffffffffffffffffffffffffffffffff60038301541691606084019283520154608083015260a0822091604051927f5c60e39a000000000000000000000000000000000000000000000000000000008452600484015260c08360248173ffffffffffffffffffffffffffffffffffffffff7f0000000000000000000000000000000000000000000000000000000000000000165afa928315611f2a575f9361351b575b5060808301906131a36fffffffffffffffffffffffffffffffff83511642612cbf565b92831515806134fc575b806134dc575b61324d575b505050506fffffffffffffffffffffffffffffffff60608160408401511692015116906001810180911161200457620f424082019384831161200457620f423f9161320291613713565b910183811161200457612afc936132316132369273ffffffffffffffffffffffffffffffffffffffff946137dd565b613726565b91165f52600160205260ff60405f205416906137a2565b51604080517f8c00bf6b000000000000000000000000000000000000000000000000000000008152835173ffffffffffffffffffffffffffffffffffffffff908116600483015260208501518116602483015291840151821660448201526060840151821660648201526080909301516084840152166fffffffffffffffffffffffffffffffff85511660a483015260208501936fffffffffffffffffffffffffffffffff85511660c48401526fffffffffffffffffffffffffffffffff60408701948186511660e48601528160608901511661010486015251166101248401526020836101648160a08a01956fffffffffffffffffffffffffffffffff8751166101448301525afa928315611f2a575f936134a6575b506133d06fffffffffffffffffffffffffffffffff936133ca613394670de0b6b3a7640000948789511693613713565b6133c5671bc16d674ec800006133aa8380613713565b046729a2241af62c00006133be8483613713565b04926137dd565b6137dd565b90613713565b0492826133e86133df86613bba565b828451166138d5565b169052816134016133f885613bba565b828851166138d5565b16855251169081613413575b806131b8565b670de0b6b3a76400009161342691613713565b04613444816fffffffffffffffffffffffffffffffff855116612cbf565b6fffffffffffffffffffffffffffffffff83511691620f4240830180931161200457600182018092116120045761349661349b926132316fffffffffffffffffffffffffffffffff956133df94613713565b613bba565b1690525f808061340d565b92506020833d6020116134d4575b816134c160209383612a01565b81010312611f35579151916133d0613364565b3d91506134b4565b5073ffffffffffffffffffffffffffffffffffffffff81511615156131b3565b506fffffffffffffffffffffffffffffffff60408601511615156131ad565b90925060c0813d60c0116135c5575b8161353760c09383612a01565b81010312611f35576040519060c0820182811067ffffffffffffffff82111761270d576135b99160a09160405261356d816138b8565b845261357b602082016138b8565b602085015261358c604082016138b8565b604085015261359d606082016138b8565b60608501526135ae608082016138b8565b6080850152016138b8565b60a0820152915f613180565b3d915061352a565b73ffffffffffffffffffffffffffffffffffffffff6002541633036135ee57565b7f118cdaa7000000000000000000000000000000000000000000000000000000005f523360045260245ffd5b82156136e95773ffffffffffffffffffffffffffffffffffffffff169173ffffffffffffffffffffffffffffffffffffffff604051927fa9059cbb000000000000000000000000000000000000000000000000000000005f521660045260245260205f60448180865af19060015f51148216156136c8575b6040521561369d5750565b7f5274afe7000000000000000000000000000000000000000000000000000000005f5260045260245ffd5b9060018115166136e057823b15153d15161690613692565b503d5f823e3d90fd5b505050565b9060ff8091169116039060ff821161200457565b60ff16604d811161200457600a0a90565b8181029291811591840414171561200457565b8115613730570490565b7f4e487b71000000000000000000000000000000000000000000000000000000005f52601260045260245ffd5b9060ff8116806012115f1461378457509061249161377f612afc9360126136ee565b613702565b6012101561379e57906133ca61377f6012612afc946136ee565b5090565b9060ff811660128111156137c357509061249161377f6012612afc946136ee565b6012111561379e57906133ca61377f612afc9360126136ee565b9190820180921161200457565b90670de0b6b3a7640000820291808304670de0b6b3a7640000149015171561200457612afc91613726565b82156136e95773ffffffffffffffffffffffffffffffffffffffff169173ffffffffffffffffffffffffffffffffffffffff604051927f23b872dd000000000000000000000000000000000000000000000000000000005f52166004523060245260445260205f60648180865af19060015f51148216156138a0575b6040525f6060521561369d5750565b9060018115166136e057823b15153d15161690613891565b51906fffffffffffffffffffffffffffffffff82168203611f3557565b906fffffffffffffffffffffffffffffffff809116911601906fffffffffffffffffffffffffffffffff821161200457565b60027f9b779b17422d0df92223018b32b4d1fa46e071723d6817e2486d003becc55f0054146139565760027f9b779b17422d0df92223018b32b4d1fa46e071723d6817e2486d003becc55f0055565b7f3ee5aeb5000000000000000000000000000000000000000000000000000000005f5260045ffd5b9190826040910312611f35576020825192015190565b613a1a905f936139de60409473ffffffffffffffffffffffffffffffffffffffff7f0000000000000000000000000000000000000000000000000000000000000000168094613a48565b83519485809481937f627dd56a000000000000000000000000000000000000000000000000000000008352602060048401526024830190612e69565b03925af1908115611f2a575f91613a2f575090565b61379e915060403d604011612671576126628183612a01565b73ffffffffffffffffffffffffffffffffffffffff169173ffffffffffffffffffffffffffffffffffffffff604051927f095ea7b3000000000000000000000000000000000000000000000000000000005f521691826004528160245260205f60448180885af19060015f5114821615613bab575b60405215613aca57505050565b6040517f095ea7b3000000000000000000000000000000000000000000000000000000005f52826004525f60245260205f60448180885af19060015f5114821615613b93575b60405215613b6757604051917f095ea7b3000000000000000000000000000000000000000000000000000000005f5260045260245260205f60448180865af19060015f51148216156136c8576040521561369d5750565b827f5274afe7000000000000000000000000000000000000000000000000000000005f5260045260245ffd5b9060018115166136e057843b15153d15161690613b10565b90843b15153d15161690613abd565b604051613bc8604082612a01565b601481527f6d61782075696e7431323820657863656564656400000000000000000000000060208201526fffffffffffffffffffffffffffffffff8211613c1f57506fffffffffffffffffffffffffffffffff1690565b613c5d906040519182917f08c379a0000000000000000000000000000000000000000000000000000000008352602060048401526024830190612e69565b0390fd5b602081830312611f355780519067ffffffffffffffff8211611f35570181601f82011215611f3557805190613c9582612a42565b92613ca36040519485612a01565b82845260208383010111611f3557815f9260208093018386015e830101529056fea2646970667358221220f83d7b5cc23c324b51faa047f962e95c1e83935adc85b1c38eea29905a8eb14564736f6c634300081e003360c03461008757601f61071d38819003918201601f19168301916001600160401b0383118484101761008b57808492604094855283398101031261008757610052602061004b8361009f565b920161009f565b9060805260a05260405161066990816100b48239608051818181609d01526102e4015260a05181818161010f015261033f0152f35b5f80fd5b634e487b7160e01b5f52604160045260245ffd5b51906001600160a01b03821682036100875756fe6080806040526004361015610012575f80fd5b5f3560e01c90816309c5eabe14610275575080634f8632ba14610225578063c4d66de814610133578063d8fbc833146100c55763dd72047f14610053575f80fd5b346100c1575f7ffffffffffffffffffffffffffffffffffffffffffffffffffffffffffffffffc3601126100c157602060405173ffffffffffffffffffffffffffffffffffffffff7f0000000000000000000000000000000000000000000000000000000000000000168152f35b5f80fd5b346100c1575f7ffffffffffffffffffffffffffffffffffffffffffffffffffffffffffffffffc3601126100c157602060405173ffffffffffffffffffffffffffffffffffffffff7f0000000000000000000000000000000000000000000000000000000000000000168152f35b346100c15760207ffffffffffffffffffffffffffffffffffffffffffffffffffffffffffffffffc3601126100c15760043573ffffffffffffffffffffffffffffffffffffffff81168091036100c1575f5473ffffffffffffffffffffffffffffffffffffffff81166101c7577fffffffffffffffffffffffff000000000000000000000000000000000000000016175f55005b60646040517f08c379a000000000000000000000000000000000000000000000000000000000815260206004820152601e60248201527f5573657250726f78793a20416c726561647920496e697469616c697a656400006044820152fd5b346100c1575f7ffffffffffffffffffffffffffffffffffffffffffffffffffffffffffffffffc3601126100c157602073ffffffffffffffffffffffffffffffffffffffff5f5416604051908152f35b346100c15760207ffffffffffffffffffffffffffffffffffffffffffffffffffffffffffffffffc3601126100c15760043567ffffffffffffffff81116100c157366023820112156100c15780600401359167ffffffffffffffff83116100c15736602484840101116100c1577f00000000000000000000000000000000000000000000000000000000000000009073ffffffffffffffffffffffffffffffffffffffff8216330361041b575b505060245f929182849360405193849301833781018381520390827f00000000000000000000000000000000000000000000000000000000000000005af16103686105d6565b90156103bd5760406020917fffffffffffffffffffffffffffffffffffffffffffffffffffffffffffffffe0601f835194859381855280519182918282880152018686015e5f85828601015201168101030190f35b60646040517f08c379a000000000000000000000000000000000000000000000000000000000815260206004820152601660248201527f5573657250726f78793a2043616c6c204661696c6564000000000000000000006044820152fd5b73ffffffffffffffffffffffffffffffffffffffff5f541633145f1461050c57505f80916040518260208201917f07a00b1f0000000000000000000000000000000000000000000000000000000083526004815261047a602482610568565b51925af1506104876105d6565b6020818051810103126100c157602001518015908115036100c1576104ae5760245f610322565b60646040517f08c379a000000000000000000000000000000000000000000000000000000000815260206004820152601f60248201527f5573657250726f78793a204e6f7420696e205265636f76657279204d6f6465006044820152fd5b807f08c379a0000000000000000000000000000000000000000000000000000000006064925260206004820152601760248201527f5573657250726f78793a20556e617574686f72697365640000000000000000006044820152fd5b90601f7fffffffffffffffffffffffffffffffffffffffffffffffffffffffffffffffe0910116810190811067ffffffffffffffff8211176105a957604052565b7f4e487b71000000000000000000000000000000000000000000000000000000005f52604160045260245ffd5b3d1561062e573d9067ffffffffffffffff82116105a9576040519161062360207fffffffffffffffffffffffffffffffffffffffffffffffffffffffffffffffe0601f8401160184610568565b82523d5f602084013e565b60609056fea26469706673582212209720892ef7109a92442df90ecb0803a0d66e0c477ee148e7b41b8fb34212ae1c64736f6c634300081e0033","linkReferences":{}},"methodIdentifiers":{"LIQUIDATION_BUFFER()":"83da2a3c","SLIPPAGE_BUFFER()":"24b31145","acceptOwnership()":"79ba5097","addSupportedCollateralToken(address,bytes32)":"909fa78d","calcLeverageFlashLoan(uint256,address,address,uint256)":"5adb101c","calcUnleverageFlashLoan(address,address,uint256)":"313b120e","createUserProxy(address)":"bc3d92e2","deleverage(uint256,bytes)":"b2d0cde9","getCollateralValueInLoanToken(address,address,uint256)":"3ba7a314","getLiqLtv(address,address)":"e43478ef","getMaxLtv(address,address)":"62fd6add","getSharesValueInLoanToken(address,address,uint256)":"e30e40cb","getTreasury()":"3b19e84a","getUserLeveragePosition(address,uint256)":"642afd92","getUserLeveragePositions(address)":"544e5eca","getYieldFee()":"3819e5d3","i_morpho()":"96d066f5","i_swapRouter()":"58fb8054","i_userProxyImplementation()":"d5c96c17","isSupportedCollateralToken(address,address)":"dc101605","leverage(address,(uint256,address,address,uint256,bytes))":"7238823c","onMorphoFlashLoan(uint256,bytes)":"31f57072","owner()":"8da5cb5b","pendingOwner()":"e30c3978","recover(address)":"0cd865ec","recoveryMode()":"07a00b1f","renounceOwnership()":"715018a6","setRecoveryMode(bool)":"92905bf7","transferOwnership(address)":"f2fde38b","updateTreasury(address)":"7f51bb1f","updateYieldFee(uint256)":"a1f19610"},"id":48}