{"abi":[{"type":"constructor","inputs":[{"name":"swapRouter","type":"address","internalType":"address"}],"stateMutability":"nonpayable"},{"type":"function","name":"i_swapRouter","inputs":[],"outputs":[{"name":"","type":"address","internalType":"contract ISwapRouter"}],"stateMutability":"view"}],"bytecode":{"object":"0x60a034606657601f61014638819003918201601f19168301916001600160401b03831184841017606a57808492602094604052833981010312606657516001600160a01b0381169081900360665760805260405160c7908161007f82396080518160690152f35b5f80fd5b634e487b7160e01b5f52604160045260245ffdfe60808060405260043610156011575f80fd5b5f3560e01c6358fb8054146023575f80fd5b34608d575f7ffffffffffffffffffffffffffffffffffffffffffffffffffffffffffffffffc360112608d5760209073ffffffffffffffffffffffffffffffffffffffff7f0000000000000000000000000000000000000000000000000000000000000000168152f35b5f80fdfea2646970667358221220b7009804b1ad97a5ba64a7d3595c5777d2e21e7b343237e5ab8a6a591a49b39364736f6c634300081e0033","linkReferences":{}},"methodIdentifiers":{"i_swapRouter()":"58fb8054"},"id":31}